:100000000C946A010C9487010C9487010C942B18B2
:100010000C9487010C9487010C9487010C94870140
:100020000C9487010C9487010C94D31E0C94A71F89
:100030000C940A1A0C9487010C9487010C94870184
:100040000C9487010C9487010C9487010C94870110
:100050000C9487010C94AD1A0C9487010C948701C1
:100060000C9487010C9487010C9487010C948701F0
:100070000C9487010C9487010C9487010C948701E0
:100080000C9487010C9487010C9487010C948701D0
:100090000C9487010C9487010C9487010C948701C0
:1000A0000C9487010C9487010C94870135001E0085
:1000B0001F002000210022002B0014001A0008005D
:1000C00015001700292104001600070009000A0086
:1000D000E2001D001B000600190005000000E300FF
:1000E0002A41E100E0002F002D0027002600250016
:1000F000240023002E00130012000C0018001C0026
:10010000340033000F000E000D000B0031003800EA
:10011000370036001000110000004C3128422C003E
:10012000E200300044003A003B003C003D003E004D
:1001300044003A003B003C003D003E0035001E02FA
:100140001F02200221022202010001000100010021
:100150000100010000000100010001000100010098
:10016000450043004200410040003F00450043007D
:100170004200410040003F002D02270226022502D6
:10018000240223020100010001000100010001001E
:100190000000010001000100010001000100010058
:1001A0000100010001000100010001000100010047
:1001B0000100010001000100010001000100010037
:1001C0000100010001000100010001000000010028
:1001D000010001000100010001000100A900AA00C6
:1001E000A800010001000100BB00AE00BC0001003E
:1001F000010001004F0052005100500001000100B9
:1002000001000100010001000000010001000100E7
:100210000100010000AE00AF00DA0281FFD9F1DB7E
:1002200020A4A62EAF00A0C0D30000A1C8D3000018
:10023000AED580A81F408D1420000E034C0069002D
:100240006C00790035003800000010036C00690074
:100250006C00690075006D00730000000403090460
:1002600009022200010100A0FA09040000010301B3
:100270000100092111010001224000070581030846
:1002800000011201000200000008D8042DEB00015B
:100290000102000105010906A101050719E029E78E
:1002A00015002501950875018102950175088101E8
:1002B0000507190029FF150026FF0095067508811E
:1002C000000508190129059505750191029501752B
:1002D000039101C011241FBECFEFDAE0DEBFCDBF16
:1002E00011E0A0E0B1E0E4EBF4E402C005900D926F
:1002F000A034B107D9F724E0A0E4B1E001C01D9219
:10030000A936B207E1F70E94A6120C9419220C94A8
:1003100000008330B8F46A30A8F4463098F450E016
:1003200096E0699F400D511D1124FA019CE3899FBD
:10033000E00DF11D1124EE0FFF1FE455FF4F8591D5
:100340009491089581E090E008950E9489010895B4
:1003500081E008950E94A801089581E008950E9417
:10036000A80108950E94AF01089508950E94B50163
:100370000895A6E0B0E0EFEBF1E00C948921498309
:100380005A839E833091470189819A8131111AC025
:100390003E81332399F0222389F00E94D706182F3B
:1003A000682F89819A810E94B30669817A81812FA1
:1003B0000E94A00D2696E3E00C94A5210E94C5069C
:1003C000182FF3CF0E94D70669817A81F1CFFC0103
:1003D000262F4081518162817381848195810E94A1
:1003E000B9010895CF93DF93EC0161E00E94E7012A
:1003F000BE010E94AA01DF91CF910895CF93DF93B0
:10040000EC0160E00E94E701BE010E94B601DF91AD
:10041000CF91089508950E9488050E940A022FEF47
:1004200084E39CE0215080409040E1F700C0000050
:1004300008950E940B020E94D11A08950E940B0297
:100440000E94E21A08950F931F93CF93DF938C01BC
:1004500061E00E94E701EC01B8010E94B201811144
:1004600006C080E0DF91CF911F910F910895B801F0
:10047000CE010E945B168823A1F3B801CE010E9431
:10048000F114882371F3B801CE010E94CD158823A1
:1004900041F3F8018581882361F0C330FCE7DF0771
:1004A000E9F058F4C115ECE7DE07A9F0C130DC47EC
:1004B000B9F0C8010E94AD01D5CFCB358CE7D80784
:1004C000A9F0CC35ECE7DE0771F0CA35DC4789F7D7
:1004D0000E940D0BEECF0E941902C3CF0E94150B94
:1004E0000E941E02BECF0E94030BE3CF0E94110B9D
:1004F000E0CF0E94E7190E94A2020E949914089579
:100500000E94A6020E94EC190895089581E00895C2
:100510000895CF93DF93D82F0E948602C82F882397
:1005200019F08D2F0E9488028C2FDF91CF910895B2
:100530000895CF93C82F0E9485028C2F0E948902B4
:10054000CF91089580E00E94990208950E94511968
:100550000E9499020895CF930E945119C82F80914B
:1005600042018C1779F0C09342010E94761A609381
:1005700043017093440180934501909346018C2F71
:100580000E949902CF910895ADE0B0E0EAECF2E06C
:100590000C948A21488759876A877B878C879D8737
:1005A00091110E943B0A1F8286E0FE013896DE010F
:1005B000119601900D928A95E1F78D8181110DC000
:1005C00029813A814B815C816D817E818F810E947E
:1005D0006E092D96E2E00C94A621CE0101960E94B0
:1005E000F2018111EDCFF5CFFC012481213021F4FE
:1005F000808191810E9409070895CF93C82F882395
:10060000B9F08CEF8C0F813AA8F46C2F8091000127
:10061000909101010E948219882329F08C2F0E9459
:10062000FB090E94740A8C2F0E94F3090E94740A2D
:10063000CF91089580E28C0F8830D0F7C77081E0A9
:1006400001C0880FCA95EAF70E941E0AEFCF8823DF
:1006500041F09CEF980F913A28F40E94FB090E9408
:10066000740A089590E2980F9830D8F7877091E057
:1006700001C0990F8A95EAF7892F0E94240AEFCFCB
:100680001F93CF93DF93182FEB010E94FD02209759
:1006900039F4812F0E942703DF91CF911F91089594
:1006A0008FE99FE00197F1F700C000002197EFCF9D
:1006B00070E060E0893311F460E570E00E9440036F
:1006C0000895882321F00E941E0A0E94740A08954A
:1006D000882321F00E94240A0E94740A0895B0E041
:1006E000A0E0E5E7F3E00C9483216C01D62FC72F3F
:1006F000FC011581068102950F700E94140AE82EF4
:100700008823E9F0E12E1123D1F08C2F807F8034F3
:1007100051F080E28D0F8830F8F0011104C08C2F69
:10072000807E8032C9F08091390282FF15C082E05C
:100730000E94D70A0E94140A91E0E82EE926BC2EF6
:10074000B2949FE0B922FBE0FB15B8F1EB2DF0E08D
:10075000E55EFD4D0C947421E12CF1CF0C2F0F7050
:10076000C07F11F00295007F112399F0002359F00A
:1007700080E28D0F883010F0D11107C0802F0E94C9
:100780001E0A0E94740A8D2F5AC0802F0E942E0AC2
:10079000F8CF8D2F0E942703002379F080E28D0F80
:1007A000883010F0D11104C0802F0E94240A03C0A9
:1007B000802F0E94340A0E94740AEB2DE850FF0B30
:1007C000349720F40E9451190E949902EE2089F07A
:1007D0000E94100A80FD0DC0F60115820E940A0ACF
:1007E0000E941106C6010E945B050E940A0A0E942F
:1007F0002106CDB7DEB7E9E00C949F212C2F2F7096
:10080000F22EC07FC03219F0F29480EFF822DD237F
:1008100041F0D130D1F1112309F444C00023F1F0AB
:10082000B2CF8091390282FD15C0112359F0FF200B
:1008300029F08F2D0E941E0A0E94740A80E00E94F7
:10084000FD02BBCF80E00E942703FF2009F4B5CF53
:100850008F2DABCF112369F0011104C08F2D0E94A1
:100860006103ABCF013009F0A8CF8F2D0E94520A4F
:10087000A4CF0111A2CF8F2D0E9468038F2D0E945B
:100880005E0A8F2D0E94420A98CF112321F0063074
:1008900008F093CFE3CF053008F08FCF8F2D0E9463
:1008A00068038BCF0023D1F3D93349F43FEF87EEB0
:1008B00093E0315080409040E1F700C000008D2F60
:1008C0000E9427037ACF8C2F8370A1F5111175CF69
:1008D0004D2F429546954770440F440F2D2F2F7092
:1008E00030E0042E02C0220F331F0A94E2F790E09A
:1008F00080E0D4FF09C08FE090E002C0880F991F0C
:100900004A95E2F780959095C695C695C370822B5F
:10091000932BC23049F058F4C13019F00E94E10520
:100920004CCF0E94D80549CF0E94EA0546CF0E94CD
:10093000D50543CF8695112311F08C2F8170882324
:1009400009F43BCF4D2F429546954770440F440F15
:100950002D2F2F7030E0042E02C0220F331F0A9477
:10096000E2F790E080E0D4FF09C08FE090E002C0A1
:10097000880F991F4A95E2F780959095C695C69580
:10098000C370822B932BC23049F058F4C13019F058
:100990000E944C0612CF0E9443060FCF0E945506BC
:1009A0000CCF0E94F90509CFCF70112329F08C2FAD
:1009B0000E9411068D2F53CF8D2F0E9468038C2F1C
:1009C0000E942106FACED23F41F160F4D03FB9F047
:1009D000D13F81F0112309F446C00111D4CE8C2FF0
:1009E0008F711FC0D33F01F1D43FA1F7809139022D
:1009F00082FD24C08C2F8F71112311F312C011239B
:100A000041F0053008F0D9CE8C2F8F710E9433064B
:100A1000D4CE063008F0D1CEF7CF8C2F8F711111C4
:100A2000CFCF0E941106C9CE112329F08C2F8F71D0
:100A30000E940506C2CE0E940006BFCE112349F0D7
:100A4000CF718C2F0E94110663E08C2F0E94B90A8F
:100A5000B4CE81E00E94D70A023008F4AECE82E024
:100A60000E94D70AAACE002359F0D93309F027CF24
:100A7000EFEFF7EE23E0E150F0402040E1F71DCF2B
:100A80008C2F8F719DCF0F931F93CF93DF93EC012A
:100A9000688179818D810E9414078C010E945E0615
:100AA0000E94D405B801CE010E946F03DF91CF915F
:100AB0001F910F910895CF93DF93EC018C818823D0
:100AC00099F0CE010E942302811111C00E94140AE4
:100AD000882351F08D81882339F08091390282FF7B
:100AE00003C082E00E94D70ADF91CF910895CE0122
:100AF0000E944305CE010E94FE01F6CF0E943B0AF0
:100B00000E94740A08950E94030A0E947E050895B7
:100B10000E942B0A0E948305089592959F7096303B
:100B200091F058F4925F9F70923058F4803F19F022
:100B300030F4883E30F481E008959A5FF4CF843F2A
:100B4000D1F380E00895883EB0F3813FD1F7F3CF31
:100B5000FC012481222339F0808191810E940907C0
:100B60000E948D05089580E00895A6E0B0E0EBEBCB
:100B7000F5E00C948A212696E2E00C94A621A7E0E9
:100B8000B0E0E5ECF5E00C948A212796E2E00C94C5
:100B9000A62108950E94C90508950E94CA05909350
:100BA0006B0180936A01089508950E94CD05089510
:100BB00020916A0130916B01822B932B0E94CD050D
:100BC000089520916A0130916B01822393230E9442
:100BD000CD05089520916A0130916B0182279327FA
:100BE0000E94CD0508950E94C90508950E94F3054D
:100BF00008950E94F6059093690180936801089515
:100C000090E080E00E94F905089521E030E0A9011C
:100C100002C0440F551F8A95E2F7CA010E94F905E8
:100C2000089521E030E002C0220F331F8A95E2F7D9
:100C30008091680190916901822B932B0E94F905A4
:100C4000089521E030E002C0220F331F8A95E2F7B9
:100C500020953095809168019091690182239323BA
:100C60000E94F905089521E030E002C0220F331FF1
:100C70008A95E2F780916801909169018227932714
:100C80000E94F90508952091680130916901822B35
:100C9000932B0E94F9050895209168013091690114
:100CA000822393230E94F9050895209168013091D1
:100CB0006901822793270E94F90508950895262F38
:100CC000277091E001C0990F2A95EAF723E0769505
:100CD00067952A95E1F7660F771F660F771FFA0170
:100CE000E60FF71F50E040E0682F70E08191DF01D0
:100CF00011979B01042E02C0369527950A94E2F7BE
:100D0000217021952827292328272C934F5F5F4F97
:100D10004430510559F70895A82FA77023E0969500
:100D200087952A95E1F7880F991F880F991FFB0176
:100D3000E80FF91F50E040E080E0219130E00A2EFA
:100D400002C0369527950A94E2F721703327042EC6
:100D500001C0220F0A94EAF7822B4F5F5F4F4430A5
:100D6000510559F70895262F9A3070F4863060F4B3
:100D7000682F70E086E0989F600D711D112448E493
:100D800051E0822F0E945F060895292F9A3068F45F
:100D9000863058F490E068E471E036E0239F800DDF
:100DA000911D11240E948C06089580E00895B0E002
:100DB000A0E0EDEDF6E00C9483217C010091680148
:100DC0001091690180916A0190916B01082B192B98
:100DD000CFE0D0E0CC24C394D12CBC2EC6010C2E85
:100DE00002C0880F991F0A94E2F780239123892B70
:100DF00049F4219790F7B12C8B2DCDB7DEB7E9E000
:100E00000C949F21B7018C2F0E94AC0D019789F3A0
:100E1000F3CFCF93DF93EC010E94D706BE010E946F
:100E2000AC0DDF91CF9108951F93CF93DF93EB012A
:100E300090914701992339F0CB010E940907DF9176
:100E4000CF911F910895882369F0CB010E94D706A6
:100E5000182F682FCE010E94B306BE01812F0E9479
:100E6000AC0DEDCFCB010E94C506182FF6CF1F9316
:100E7000CF93DF93C0916C0117E080916D018C13CB
:100E800004C0DF91CF911F910895D0E01C9FF00125
:100E90001D9FF00D1124E259FE4F208131814281C6
:100EA00053816481758186810E94BF052196C77038
:100EB000E4CF2091A6013091A7014091A801509163
:100EC000A9016091AA017091AB018091AC010E94CF
:100ED000BF050895CF93DF938091AC01807F09F027
:100EE0004DC08091AB01882309F448C0E0916C01AA
:100EF00050916D01C091A701D091A6016091A80108
:100F00007091A90147E05E17C9F18E2F90E0E49F30
:100F1000F0011124E259FE4F2481222391F1489FD0
:100F2000F001499FF00D1124DF01A259BE4F119627
:100F30002C9111972C1325C02C912D1322C015969E
:100F40002C91159721111DC012962D913C91261BB5
:100F5000370B283C3105A8F48091AC018F7080617B
:100F60008093AC01EC58FE4F80818F70806180834C
:100F700086EA91E00E945B050E943707DF91CF91DE
:100F80000895FC013196E770BECF482F20916C0187
:100F900090916D0157E0291302C080E0089530E080
:100FA000529FF001539FF00D1124E259FE4F8181B1
:100FB000681306C08081481303C085818111EECF7C
:100FC0002F5F3F4F2770E7CFA4E1B0E0EAEEF7E0F4
:100FD0000C9480218C0186E0F801DE011F960190BF
:100FE0000D928A95E1F7F8018481E58096EAA92EB1
:100FF00091E0B92E9091AA0191111FC08823D1F0E0
:10100000EE20A9F0C8010E94A805F82E882379F0E7
:1010100087E0F801D50101900D928A95E1F7C501AD
:101020000E94F4020E946A070E9459075FC0C8012B
:101030000E945B05FF24F39459C0C080D180828058
:101040009380F090AB012091A8013091A901A401F7
:10105000421B530BFF2009F4F9C0483C510508F02E
:10106000A7C0882309F442C09091A7018091AC01E8
:10107000282F207F09F05CC09D1116C09091A60119
:10108000C91212C0E1104EC08F7080618093AC0114
:101090000E94590786EA91E00E945B058091AC01AD
:1010A000F8018683F12C22C0E1103CC06D2D8C2DFF
:1010B0000E94C5076D2D8C2D0E94C507E82E811159
:1010C000F1CFCF86D88A8F8598890E940907292F6A
:1010D00022952F70243078F49F702230A8F0992345
:1010E000B9F0F8019681907F99F4FE2C8F2D6496CB
:1010F000ECE00C949C212A5F2F70223068F0C8012C
:101100000E945B05EF2CF1CF992311F0882369F33E
:10111000805E883050F3F3CF803F38F3815F8330B7
:1011200070F7E3CF8091AC0181608093AC01BACFBE
:101130009D1113C09091A601C9120FC0E1100DC0FE
:101140008683C8010E945B0587E0F801A6EAB1E04A
:1011500001900D928A95E1F767CFC8010E94A8051A
:10116000882309F464CFEE2009F461CF8091AC01AB
:10117000803288F02091A6013091A7013987288715
:101180009B868A869091AA019C871D868E87CE01B8
:1011900008960E945B0587E0F801A6EAB1E001909D
:1011A0000D928A95E1F70E946A070E94590742CF83
:1011B0009091AC01292F207FA1F4682D9A8A898A09
:1011C000A6017A899E2D0E94B50586EA91E00E94CB
:1011D0005B0587E0F50111928A95E9F70E945907AE
:1011E00061CF882309F482CF8091A7018D1110C0AF
:1011F0008091A601C8120CC0E1100AC09683C801F4
:101200000E945B0587E0F50111928A95E9F76ECFA0
:10121000C8010E94A805882309F409CFEE2009F42B
:1012200006CF8091AC01803208F4B5CF2091A601A1
:101230003091A7013A8329839C828B829091AA01E5
:101240009D831E828F83CE010196A3CF483C51051A
:10125000B8F5882309F4EECEFE2CEE2009F4E7CE93
:101260008091A7018D111EC08091A601C8121AC0DD
:101270008091AC0180FD0DC0982F907F51F0868346
:10128000903F09F45ECF982F907F905F8F70892BED
:1012900057CF87E0F801A6EAB1E001900D928A9558
:1012A000E1F724CFC8010E94A805811174CF809175
:1012B000AC0181608093AC01C8010E945B0516CF30
:1012C000682D9A8A898AA6017A899E2D0E94B50581
:1012D00087E0F50111928A95E9F7A6CEAEE0B0E07D
:1012E000E4E7F9E00C948921288739874A875B87EE
:1012F0006C877D878E87CE0108960E94E40788233D
:10130000B1F06C85662341F0288539854A855B8577
:101310007D858E850E94BF0517E080916C019091BC
:101320006D0189133DC02E96E3E00C94A52187E062
:10133000FE013896DE01119601900D928A95E1F733
:101340008C85882349F320916D0130E0C901019615
:101350008770992740916C014817190699F097E01A
:10136000929FD001939FB00D1124A259BE4FFE0150
:10137000319601900D929A95E1F780936D010E944C
:101380003707CACF0E94880510926D0110926C0138
:1013900087E0E6EAF1E0DF011D928A95E9F7BCCF2C
:1013A000819FC001112482599E4F0E94E407882327
:1013B00009F4B9CFE0916C011E9FF0011124E259AC
:1013C000FE4F208131814281538164817581868104
:1013D0000E94BF0580916C0190E00196877099276B
:1013E00080936C019ACF682F809100019091010148
:1013F0000E94B8190895682F809100019091010111
:101400000E94BB19089580910001909101010E94F2
:10141000BE1908958091B5018695869586950895A3
:101420008091B501877008959091B501977081E022
:1014300009F480E008958091C10108959091C1015F
:10144000892B8093C101089580959091C1019823C3
:101450009093C10108951092C10108959091C00127
:10146000892B8093C001089580959091C0019823A5
:101470009093C00108951092C001089508950E94AC
:101480003E0A08959091B601292F282331F08095C6
:1014900089238093B6010E943F0A089508950E940F
:1014A0004E0A08959091B701292F2823281729F073
:1014B000982B9093B7010E944F0A08959091B7011D
:1014C000292F282331F0809589238093B7010E942A
:1014D0004F0A08958091B701882329F01092B7012F
:1014E00080E00E944F0A0895CF93DF93E0910001BE
:1014F000F09101018091C1018083E0910001F091A0
:10150000010180819091C001892B80839091B70166
:10151000992381F0E0910001F09101018081892BF4
:10152000808380910001909101010E9470198111C6
:101530000E946A0AC0910001D091010148E050E088
:101540006DEA71E0CE010E94B121892B59F088E04B
:10155000FE01ADEAB1E001900D928A95E1F7CE016E
:101560000E946519DF91CF91089508950E94B50AF0
:1015700008959091390292FF11C098E0899F9001DF
:101580001124622B6093B5010E9411068091B50170
:101590008695869586950E94B60A08950E94110642
:1015A00008951092B50180E00E94B60A08959091C6
:1015B000B501809589238093B501282F277069F4A0
:1015C000891759F09091390292FF07C08695869548
:1015D00086950E9421060E94D10A089590913902B1
:1015E00092FB222720F9281769F080FB92F990934B
:1015F000390280913802909139020E94360B82E0C4
:101600000E94D70A08958091390282FB882780F9C9
:1016100091E089270E94EE0A089581E00E94EE0A77
:10162000089580E00E94EE0A08956FEF7FEF90E04A
:1016300080E00E940322089590E080E00E94CF2184
:1016400021E0863E9E4F09F020E0822F089582E03F
:1016500090E00E94C721089583E090E00E94C72196
:10166000089584E090E00E94CF210895BC0184E0B9
:1016700090E00E9403220895AB01BC018FE090E04E
:101680000E94F7210895AB01BC0183E190E00E9424
:10169000F721089560E070E0CB010E94430B0895AC
:1016A00060E070E0CB010E943C0B0E944A0B089561
:1016B000A8E0B0E0EEE5FBE00C948A2166EE7EEF58
:1016C00090E080E00E94032260E082E090E00E94CF
:1016D000E52160E083E090E00E94E52110926B013B
:1016E00010926A0160E074E184E090E00E940322BD
:1016F00060E086E090E00E94E5216FEF87E090E0F7
:101700000E94E52140E050E0BA0188E090E00E94AC
:10171000F72160E084E290E00E94E52160E087E14B
:1017200090E00E94E52160E08CE090E00E94E521DD
:1017300060E08DE090E00E94E52119821A821B8210
:101740001C821D821E821F82188648E050E068E1DC
:1017500070E0CE0101960E94D52140E050E0BA0130
:1017600080E290E00E94F7210E94500B2896E2E070
:101770000C94A6210E94580B0895682F8EE090E0EB
:101780000E94E5210895A6E0B0E0E9ECFBE00C94AE
:1017900088210E946A1A8C018091C2019091C30134
:1017A0008017910781F019821A820E946A1A682FA5
:1017B00049815A81792F80E090E00E94C402109301
:1017C000C3010093C2012696E4E00C94A4210E9478
:1017D000BC0E6093D2017093D3018093D401909397
:1017E000D5016093CE017093CF018093D001909387
:1017F000D1010895089508950E94FB0B089508955E
:101800000E94FF0B089581E0089586ED9EE00E94FE
:1018100047190E94FA0B0E94FC0B08950E94A21027
:101820000895089508950E94110C0E94120C0895C5
:101830000E94D90E0E94980208950E94611A0E9487
:10184000960E0E94BD100E9403100E94180C0E9468
:10185000B31280E00E9431130E94C7100E94000C56
:101860000895A6E0B0E0E7E3FCE00C9480210E943C
:10187000030CC82E811110C00E94C30BC12C0E9402
:10188000A2100E94B914C1100E9494130E94AB02CE
:101890002696ECE00C949C210E94261084ECA82E45
:1018A00081E0B82E750110E0F70101917F01812FD1
:1018B0000E94FF0E1F5F1A3009F441C00817A1F300
:1018C0008091D60181FD0E94050F0E940E0C982E7A
:1018D00010E088248394812F0E94FF0E082FF501C9
:1018E00081915F01081729F1F12CEE24E394D02EA9
:1018F000D8268D2D8E21A9F0992099F0F9821A838E
:101900000E946A1A9C838B838D8291E0802F8E21A6
:1019100009F490E049815A816B817C818D810E941C
:10192000C402F394EE0CF6E0FF12E3CFF501319719
:1019300000831F5F1A3079F60E94E70BA0CF0813CF
:10194000BFCF9ACF1F93CF93DF930E94B10DEC01CD
:10195000C11582E5D80708F03FC0C11590E5D90749
:1019600008F0C2C0C83ED105C0F4C03ED10580F425
:10197000C53AD10548F4C430D10550F4C130D10581
:1019800039F0D0E0C0E004C0CD3CD105D0F3D06543
:10199000CE01DF91CF911F910895C11580E4D80742
:1019A00008F053C0C11590E2D90708F0B7C0C115BF
:1019B00081E0D80730F38D2F0E94530E182FCE01EF
:1019C00099270E94B10DC12FD0E0DC2FCC27CC2766
:1019D000DF71C82BD92BDCCFC03892E5D907A8F42A
:1019E000C03682E5D80708F063C0C03492E5D90755
:1019F00008F049C0C03282E5D80788F1CF71D0E045
:101A0000DC2FCC27C16FD06AC3CFC03C92E5D90789
:101A100080F48C2F8F71C03AD24508F45EC00E94CA
:101A2000530EC82FD0E0DC2FCC27CC27DF71D0623B
:101A3000AFCFC03E82E5D80708F0A3CFDC2FCC277C
:101A4000CC27DF71C06FD06AA3CFCE0199270E9447
:101A5000B10DCC27DF70C82BD92BD06A99CF2C2F92
:101A60002695269590E2299F900111248C2F837052
:101A7000C1E0D0E002C0CC0FDD1F8A95E2F7C22B97
:101A8000D32BDD6885CF2C2F26952695277080E2F5
:101A9000289F900111248C2F8370C1E0D0E002C0F8
:101AA000CC0FDD1F8A95E2F7C22BD32BDC6870CFF9
:101AB0002C2F26952695277090E2299F90011124BE
:101AC0008C2F8370C1E0D0E002C0CC0FDD1F8A955F
:101AD000E2F7C22BD32BDA685BCFC82FD0E0DC2F24
:101AE000CC27C46FD06A54CF8C2F8F710E94530EB5
:101AF00055E0D695C7955A95E1F7CF70D0E0DC2F29
:101B0000CC27282F30E084FF05C044E0220F331F8C
:101B10004A95E1F7C22BD32BD0693ACF8D2F8F7125
:101B20000E94530E182FCE0199270E94B10DC12F8C
:101B3000D0E0DC2FCC27CC27DF71C82BD92B77CF77
:101B4000462F7A3030F4663020F4672F0E94A501CA
:101B5000089590E080E008950E94A00D0E94A20CDC
:101B6000089582389105B9F1B0F48133910509F4F3
:101B70007DC048F48932910509F46DC08A3291051F
:101B800009F47BC008958533910509F45FC089335A
:101B9000910509F10895833E9105D9F138F4803E0D
:101BA000910529F1823E910579F10895863E9105CE
:101BB000D9F1873E910509F43EC0843E910541F577
:101BC0002091390221FF24C08091380284FD19C080
:101BD00087EE90E0089520913802237009F05AC0F2
:101BE0002091390223FF14C089E290E008952091EA
:101BF000380220FD38C03091390230FF09C024FF7F
:101C000043C090E080E008952091380222FDF7CF94
:101C100008952091380222FD3AC03091390230FDFA
:101C200039C024FFF5CFEDCF2091380223FFF0CF4C
:101C300024FDE7CFCDCF2091380223FD2EC0309177
:101C4000390231FFEECF84EE90E008952091380202
:101C500025FFDECFC9CF2091380225FD21C020917C
:101C6000390223FFD5CF89E390E0D2CF209138020B
:101C700026FFCECF8AE290E008952091380226FF19
:101C8000C7CF81E390E0089583EE90E0089582EE5F
:101C900090E0089580EE90E0089586EE90E008953B
:101CA00085E390E008959091380292FF06C0282FB6
:101CB00028712830F9F4877F846093FF06C0282FAD
:101CC00028712831F1F4877E84612091390220FF48
:101CD00006C0382F38713830D9F4877F816021FFF2
:101CE00006C0282F28712831D1F4877E816194FDA8
:101CF000877E0895282F24712430F9F68B7F886021
:101D0000DCCF282F2471243101F78B7E8861DDCF51
:101D1000382F3171313019F78E7F8860E0CF282F4E
:101D20002171213121F78E7E8861E1CF109234023A
:101D30001092350210923602109237020895CF9217
:101D4000DF92EF92FF926B017C010E94A210811141
:101D50000EC00E94761AC61AD70AE80AF90AC0927B
:101D60003402D0923502E0923602F0923702FF90B0
:101D7000EF90DF90CF9008950F931F930E94A210D1
:101D8000882329F00E94761A1F910F9108950E94CE
:101D9000761A00913402109135022091360230916A
:101DA0003702600F711F821F931FEECF80E00895EE
:101DB00008950E941C0B811102C00E94BA0B0E9460
:101DC000270B8093D6010E94310B909339028093A8
:101DD00038020E94D80E0E942C0B90E00E94D5057C
:101DE00080916801909169010E94F6050895089517
:101DF0000E94F70E089508950E94FB0E0895E82FA3
:101E0000F0E0EB5BFD4F80810895089580EA8A95AC
:101E1000F1F7089500C008950E94060F08950895EF
:101E20000E940F0F0895A5E0B0E0E9E1FFE00C94F7
:101E300086210E94A210F82E60914F02882309F497
:101E400040C085E0E82E8E010F5F1F4FF8018E2DF8
:101E500011928A95E9F7862F90E0B8018B5B9D4F30
:101E60000E94D5108823B9F080913A0290E045E0B5
:101E700050E0B8018B5B9D4F0E94B12121E020937F
:101E8000D701892B91F4F12C0E94FC0E8F2D259601
:101E9000E6E00C94A2218091D7018823A1F3F801F8
:101EA0001192EA94E9F71092D701A0913A02B0E0BA
:101EB000AB5BBD4F85E0F80101900D928A95E1F78B
:101EC000E3CF70E06B5B7D4F80913A0290E08B5BDB
:101ED0009D4F0E945C110E94100FD8CFF894E82FFC
:101EE000E295EF70F0E031A1282F2F7081E090E0B3
:101EF00001C0880F2A95EAF7982F9095932391A314
:101F000092A1892B82A3789408950F931F93CF9366
:101F1000DF93C1E3D1E089918F3F11F00E946E0FF2
:101F200081E0C633D807B9F7CBE2D1E001E311E095
:101F300089918F3F11F00E946E0F0C171D07C1F79A
:101F4000DF91CF911F910F910895B0E0A0E0EBEAEF
:101F5000FFE00C948421EC01D62E062F10E0C8017E
:101F60008F5C9E4F7C01FC0180818F3F09F444C04F
:101F7000F894E82FE295EF70F0E091A18F7021E0E6
:101F800030E001C0220F8A95EAF7892F822B81A3C6
:101F900082A12095282322A378940E940A0FEBE2C5
:101FA000F1E031E0C12C21912F3F59F1A22FA295F0
:101FB000AF70B0E090968C9190E02F7002C0959534
:101FC00087952A95E2F780FD1CC0832FC82A330F1E
:101FD00081E0E133F80739F7F70180818F3F11F095
:101FE0000E946E0F61E0C11001C060E08D2D0E9463
:101FF0000C0FC00FD11FC882CDB7DEB7E8E00C943C
:10200000A02180E0E3CF809102018091020195E060
:10201000811190E090934F0285E0891B80933A02F2
:102020000E94850F8AE0E5E4F2E0DF01982F1D921F
:102030009A95E9F7EBE3F2E0DF011D928A95E9F763
:1020400085E00E9464100E94F80E0895AAE0B0E0B6
:10205000ECE2F0E10C9487218E010F5F1F4F8AE0C4
:10206000F80111928A95E9F7F12C6F2DC8010E94B1
:10207000A50FF394F5E0FF12F8CF4AE050E0B80165
:102080008BE392E00E94B12121E0009709F420E067
:10209000892B41F08AE0F801ABE3B2E001900D92A8
:1020A0008A95E1F760914F0270E06B5B7D4F45E0F0
:1020B0008BE392E00E946510182F0E94130F812B72
:1020C0002A96E5E00C94A3210895CF92DF92EF9237
:1020D000FF920F931F93CF936C017B01042F222358
:1020E00049F081E08093DA010E946A1A9093D90145
:1020F0008093D801C091DA01C1110AC0C0E08C2FD1
:10210000CF911F910F91FF90EF90DF90CF900895A6
:102110008091D8019091D9010E94821A059770F39D
:1021200010E0A801B601C7010E94B121892B41F03E
:10213000A801B601C7010E94BE211092DA01DFCFCB
:10214000C0E0FBCF8091DD01811107C00E945321C7
:10215000882351F081E08093DD0181E09091DD01E1
:10216000913009F080E0089582E08093DD010E94C3
:102170004E21F3CF0E94A21008950E94BA108093BE
:1021800002010E94A21081110E940B1108950E9469
:10219000A210811102C00E940E11089581E0909159
:1021A000DE019A3008F080E008950F931F93CF93DB
:1021B000DF93EC018B018091DE018A30B8F4B80125
:1021C000CE010E945911C82F811122C08091DE01D9
:1021D0008F3FB9F40E946A1A9093DC018093DB016F
:1021E0008C2FDF91CF911F910F9108958091DB018A
:1021F0009091DC010E94821A843F914000F7C0E078
:10220000EFCF8F5F8093DE018A3020F7C1E0E8CF07
:102210001092DE01E5CF0E94E51708950E94E817AD
:102220000895B0E0A0E0E7E1F1E10C9485217901A7
:10223000C82F880FDD0B41155105A9F0FE0193E071
:10224000EE0FFF1F9A95E1F7ED5FFE4F81819281BE
:1022500081529E4F208130E04217530708F49A01C3
:10226000A9010E94BE21CE010E94D118D82E882338
:10227000D1F001151105B9F083E0CC0FDD1F8A956F
:10228000E1F7FE01ED5FFE4F438150E004171507B3
:1022900008F4A801CD5FDE4F6C817D8161527E4FD5
:1022A000C7010E94BE218D2DCDB7DEB7E7E00C94AB
:1022B000A1210E944B1208950E9462120895A4E089
:1022C000B0E0E5E6F1E10C9488216091F6017091AF
:1022D000F7018091F8019091F9010E94911A11E0A3
:1022E000643671058105910518F10E94BC0E6E5F80
:1022F0007F4F8F4F9F4F69837A838B839C8310E03E
:1023000000E030E020E044E050E0BE016F5F7F4F2E
:1023100082E00E941111182F882351F00E94761A32
:102320006093F6017093F7018093F8019093F9019F
:10233000812F2496E4E00C94A421B0E0A0E0E3EA2D
:10234000F1E10C9482217C015B016A010E94CE10B4
:1023500001E010E0882311F00AE010E0C1E0D0E0D5
:10236000B501C701F6010995811104C021960C172A
:102370001D072CF4CDB7DEB7EAE00C949E21CC9F6C
:102380009001CD9F300D300D112490E080E045E3A9
:102390004A95F1F70000019682179307C1F7E0CF45
:1023A000A6E0B0E0E6EDF1E10C9482217B01C09063
:1023B0003601D090370101E010E09E012A5F3F4FC7
:1023C00050E040E070E060E080E00E941111182FC2
:1023D000882309F448C056018FEFA81AB80A609103
:1023E000F2017091F3018091F4019091F5010E9446
:1023F000911A643671058105910568F105E010E0D8
:102400009E012F5F3F4F50E040E070E060E081E0D0
:102410000E941111D82E65E070E0C5010E94B4122F
:1024200011E09E81981310E01D2141F10E94761A5F
:102430006093F2017093F3018093F4019093F5019E
:1024400085E0FE013196ADEEB1E001900D928A95E6
:10245000E1F711E013C065E070E0C5010E94B4121D
:102460009E818913CBCF85E0F6013196DE0111966E
:1024700001900D928A95E1F71111E2CF85E0EDEE22
:10248000F1E0D70101900D928A95E1F7812F269610
:10249000EAE00C949E210F931F93CF93DF93EC01FE
:1024A0008B0140ED51E10E949D11882331F04FE5F1
:1024B00051E1B801CE010E949D11DF91CF911F9192
:1024C0000F9108950F931F93CF93DF93C09136011F
:1024D000D0913701CE01019625E0FB01DC0101908E
:1024E0000D922A95E1F765E070E00E94B4128883AE
:1024F0006E817F81888599850091E9011091EA01BB
:102500002091EB013091EC0160177107820793076E
:1025100051F06093E9017093EA018093EB0190938D
:10252000EC010E949F0EDF91CF911F910F910895B2
:102530000E94361C0E941D0C0E94431C08950E949C
:10254000481C0E94310C0E94621C08950E94031ACC
:102550000E941C1C0E94050C0E9498120E949F124F
:102560000E94130CFBCF0895FC01680F791F8FEFB9
:1025700091E3E617F70709F408952191822728E0EF
:1025800030E087FF06C0880F892721503109C9F73D
:10259000F0CF880FFACFAB0124E630E0BC0188E72A
:1025A0000E943F1721E0892B09F020E0822F089537
:1025B000B0E0A0E0EEEDF2E10C9484216C017B012F
:1025C00064E670E088E70E94A5168C01E601EC0C39
:1025D000FD1CCE15DF0561F40E94871781E001150F
:1025E000110509F080E0CDB7DEB7E8E00C94A0213A
:1025F00017FDF2CFFE01849164E670E00E9411178E
:102600008C012196E6CF0F931F939B0104E610E007
:10261000AC0160E488E70E94601721E0892B09F093
:1026200020E0822F1F910F9108950E949F16089518
:1026300008950E9418130895E0E5F2E080E092E02A
:10264000DF019C011D9221503040E1F7F0935704C7
:10265000E09356048FEF9FEF9093200280931F0228
:102660000895CF930E9418130E94191380931B02A0
:1026700080FD11C080E880931A020E9415136BE060
:1026800070E08FE292E00E94D812811106C0C0E093
:102690008C2FCF91089580E2EECF80911B0265E0F0
:1026A00070E081FD27C08AE292E00E94D812882360
:1026B00071F36DE070E088E192E00E94D812C82FBB
:1026C000882329F30E94761A605A75418F4F9F4FD5
:1026D0006093520470935304809354049093550470
:1026E0000E941C1381E080931E0280931D021092B1
:1026F0001C02CECF85E292E0D8CF20911A0236E0BC
:10270000839FC0011124629F800D911D11248115AA
:1027100022E0920714F090E080E0805B9D4F909360
:10272000570480935604089580911E02811103C0BE
:1027300080911D0208950E94761A605A75418F4F4C
:102740009F4F60935204709353048093540490936A
:10275000550480911D028111EBCF62E070E086E1AB
:1027600092E00E94D812882319F381E080931D0221
:10277000DFCFB0E0A0E0EFEBF3E10C947E2180919D
:102780001F0290912002892B09F4B6C080911E028D
:10279000882309F4B1C080911C028111ADC00E9450
:1027A000941320911F02309120022115310509F464
:1027B000A3C090E041E050E0092F10E0EA01092EAB
:1027C00002C0CC0FDD1F0A94E2F7BE01622373231F
:1027D000672B11F49F5FF0CF80911B0280FF91C0A7
:1027E000990F990F990F90931D0110922001995FF5
:1027F00090931E0183E08093210167E070E08BE1FC
:1028000091E00E94CB12882309F476C0980145E03C
:10281000220F331F4A95E1F780911B0280FF83C08E
:10282000EAEFF1E080E2DF011D928A95E9F70CE31F
:1028300011E088E3E82E81E0F82E97E0992E8824B5
:102840008394D801ED918D01D7016D917D01620FC7
:10285000732F711D605B7D4FF0E0E650FE4F50E03E
:1028600040E0792C741AA82C042E01C0AA0C0A94FA
:10287000EAF76B0180E0D6019D916D019A21A72DA9
:10288000A81BA770BA2E0A2E000CBB0B692E01C024
:10289000660CBA94EAF7B62CB195A195B109A77068
:1028A000BB2701C09695AA95EAF7A62DA92B908182
:1028B0009A2B90838F5F8830F1F64F5F5F4F319690
:1028C0004830510571F681E00034180709F0B9CF9E
:1028D00060E270E08AEF91E00E940313882361F0C8
:1028E000C095D09580911F0290912002C823D923D2
:1028F000D0932002C0931F02CDB7DEB7EEE00C9458
:102900009A219295990F907690931D019801369592
:1029100027953695279520932001915E90931E016F
:10292000209321016ACF60E270E0C901805B9D4F76
:10293000D3CF80911D0290911E02911103C091E0AE
:1029400089270895882369F062E070E084E192E0CD
:102950000E94D812811103C080911D020895109227
:102960001D0280911D02EBCF81E008950E94B414F6
:1029700008950F931F9380911E02882379F180910F
:102980005004909151040E94821AC29760F00E94F4
:102990006A1A909351048093500460E080E00E9492
:1029A0007D130E94B6140E94B91380911D028823E2
:1029B000A9F00E94761A00915204109153042091BC
:1029C000540430915504601B710B820B930B6F3FC5
:1029D0007F4F8F4F9F4710F40E9499141F910F91C2
:1029E0000895CF93DF93EC01FB018581882309F4DF
:1029F000D2C09E0130572332310508F0B2C00E9488
:102A0000310B9093390280933802FE01E150F04778
:102A1000E232F10520F4E95DFD4D0C9474218091C2
:102A2000380281608093380293C0809139028860B7
:102A3000809339028DC0809138028260F3CF8091FB
:102A400038028460EFCF809138028860EBCF8091AC
:102A500039028160EDCF809139028260E9CF8091A7
:102A600038028061DFCF809138028062DBCF8091B5
:102A700038028064D7CF0E94880580913802806830
:102A8000D1CF809138028C60CDCF809139028360A4
:102A9000CFCF809138028E7FC5CF80913902877F5A
:102AA000C7CF809138028D7FBDCF809138028B7F58
:102AB000B9CF80913802877FB5CF809139028E7F60
:102AC000B7CF809139028D7FB3CF809138028F7E4E
:102AD000A9CF809138028F7DA5CF809138028F7B5E
:102AE000A1CF0E948805809138028F779BCF80917B
:102AF0003802837F97CF809139028C7F99CF809164
:102B0000380282FB992790F921E0922790FB82F905
:102B100090FB83F987CF80913902982F909591701F
:102B20008E7F892B90FB81F983CF90913802892F7A
:102B30008F7B96FF806476CF0E9488059091380243
:102B4000892F97FB87F980586DCF81E00E94BD0BDC
:102B500080913802909139020E94360B0E948805BC
:102B600080E0DF91CF91089580E0F0CF909138021E
:102B7000892F8F7E94FF806155CF90913802892FE5
:102B80008E7F90FF81604ECF90913902892F877F91
:102B900093FF88604DCF81E0E4CFCF93DF93EB01CB
:102BA00086319C4711F50E941B0A9D81992399F05B
:102BB0008A7A91E009F490E090932102811109C092
:102BC00089E20E94F3090E94740A80E0DF91CF91AC
:102BD000089585E3F6CF80912102811104C089E236
:102BE0000E94FB09F0CF85E3FBCF81E0EFCF0F938D
:102BF0001F93CF93DF93C42FD22FFC0185818823AD
:102C0000C9F0409324020E946A1A90932302809391
:102C1000220280E28C0F883040F4C77081E001C04E
:102C2000880FCA95EAF70E946103DF91CF911F9147
:102C30000F91089510912402141332C08091220242
:102C4000909123020E94821A883C910548F5C0E2C7
:102C5000CD0F1D17B9F080E2810F883040F4177056
:102C600081E001C0880F1A95EAF70E946803C83016
:102C700048F481E09D2F977001C0880F9A95EAF77C
:102C80000E946103802F0E945803C83070F6D770ED
:102C900081E001C0880FDA95EAF70E946803C5CF8A
:102CA00080E28C0F883008F6C77081E001C0880F81
:102CB000CA95EAF7F2CF0F93DB0188519C47873022
:102CC0009105A0F5FC01E75BFD4D0C94742106E233
:102CD00021EE41EE6AE17CE7CD010E94F71580E02C
:102CE0000F91089507E225EE45EE6BE17CE7F4CF06
:102CF00006E221EE40EE68E17CE7EECF07E225EE4A
:102D000044EE69E17CE7E8CF06E221EE42EE6CE1B9
:102D10007CE7E2CF07E225EE46EE6DE17CE7DCCF13
:102D200008E221E045EE6EE17CE7D6CF15968C9166
:102D3000882319F010922402D3CF81E0D1CF1092D2
:102D4000B9008CE08093B8000895B0E0A0E0EBEA11
:102D5000F6E10C948121B82EEB010E946A1A6C01F5
:102D6000EE24E394F12CC431D10560F025E0E22E8D
:102D7000F12CCF3FDC0731F0CE0164E170E00E941E
:102D800060217B0184EAA82E94E8992E1092BC0061
:102D9000A092BC000E946A1A8C018091BC0087FF3F
:102DA0000DC08091B900887F8830F9F08091B9001A
:102DB000887F8031D1F00FEF1FEF08C0C8010E945B
:102DC000821AE816F90648F70EEF1FEFCF3FDC072F
:102DD000E9F2C6010E94821AC817D907B8F6C801DD
:102DE000CDB7DEB7EBE00C949D21B092BB00909282
:102DF000BC000E946A1A8C018091BC0087FF0AC047
:102E00008091B900887F883111F08034A1F610E0FC
:102E100000E0E5CFC8010E94821AE816F90660F7C3
:102E2000D3CF0F931F93CF93DF93EB018093BB001E
:102E300084E88093BC000E946A1A8C018091BC00D7
:102E400087FF11C02091B900287F81E090E02832EF
:102E500011F490E080E0919581959109DF91CF91F7
:102E60001F910F910895CF3FDC0741F3C8010E94E5
:102E7000821AC817D90710F78EEF9FEFEFCFB0E097
:102E8000A0E0E5E4F7E10C9484216B018A0179016B
:102E9000B9010E94A516E6010C0D1D1DC017D10732
:102EA00011F097FF08C024E92093BC00CDB7DEB72E
:102EB000E8E00C94A021B70189910E941117EECF90
:102EC000B0E0A0E0E6E6F7E10C948421C62F6A01A9
:102ED0007901B8010E94A51697FD0CC0B8018C2F8E
:102EE0000E941117E601EC0CFD1CCE15DF0511F058
:102EF00097FF08C024E92093BC00CDB7DEB7E8E017
:102F00000C94A021B80189910E941117EECF84E999
:102F10008093BC0008958EE14A9B02C08150E1F786
:102F20004A9BFECF08955A9880E28A95F1F75A9A03
:102F30000895FC013BE03A95F1F798E020E080E04D
:102F400031E040E14A95F1F7880F4A9B02C0816069
:102F5000232742E04A95F1F7000040E14A95F1F756
:102F6000915079F790E19A95F1F799B132E03A955D
:102F7000F1F7000040E14A95F1F792FB992790F9AB
:102F800092272081920F90830895A1E0B0E0EBECAE
:102F9000F7E10C94862119828C017C01E60EF11C6C
:102FA0000E151F0541F481E09981911180E0219671
:102FB000E6E00C94A2210E948B17CE0101960E949C
:102FC0009917F80181938F01EBCF529A5A9A08957D
:102FD00052985A9AEA9AE9E6F0E080818F7C8083E1
:102FE00008956150770B91E001C0990F6A95EAF757
:102FF00020E031E0911108C0222391F05A9A80E23A
:103000008A95F1F75A980895492F482339F05A9A2A
:10301000232740E24A95F1F79695ECCF5A98F9CFDD
:103020005A98EDCFFF920F931F93CF93DF93EC014C
:103030008C01060F111DC017D10729F4CDB7DEB7DB
:10304000E5E00C94A321F9900E94931768E08F2D7E
:103050000E94F117F0CF1F920F920FB60F9211241A
:103060000F931F932F933F934F935F936F937F9390
:103070008F939F93AF93BF93EF93FF93CF93DF9380
:103080000F92CDB7DEB719820E948B17CE01019641
:103090000E949917082F069506950695282F2295C8
:1030A0002570902F9570290F922F93702695269555
:1030B000920F982797708981982B09F05CC0043093
:1030C00008F059C080E18A95F1F75A9A529A82E045
:1030D0008A95F1F700C05A9888E0089F8001112472
:1030E000D801AD5FBE4F1696ED91FC9117973097C2
:1030F000A9F0609136017091370114962D913C91A1
:103100001597260F371F11968D919C911297680F76
:10311000791F13964C9113978C910995F801ED5FE7
:10312000FE4F6381662351F02091360130913701C3
:1031300084819581820F931F0E9412180E94931719
:1031400080E18A95F1F75A9852985A9A80E18A95C7
:10315000F1F7F801ED5FFE4F6081662351F0209199
:1031600036013091370181819281820F931F0E9435
:10317000C5170E948B170F90DF91CF91FF91EF91B0
:10318000BF91AF919F918F917F916F915F914F917F
:103190003F912F911F910F910F900FBE0F901F9095
:1031A00018950F931F93CF93DF93EC0104970CF0C6
:1031B0004CC0F894529A5A9885E08A95F1F700002D
:1031C0009C2F969595708C2F8570980F892F837002
:1031D0009695969523E0CC0FDD1F2A95E1F7980F81
:1031E0008E01092B0E94931700C068E0802F0E9477
:1031F000F11780E18A95F1F752985A9A4A9B1EC0BE
:1032000087E090E04A991CC0FE01ED5FFE4F6381AC
:103210006623F9F020913601309137018481958140
:10322000820F931F0E94C517811113C0529A5A9A98
:103230007894DF91CF911F910F91089500C0DECF58
:10324000019729F4529A5A9A789480E0F2CF00C0FC
:10325000D9CF0E948B1780E28A95F1F75A98529A3B
:1032600080E18A95F1F7CD5FDE4F6881662351F0EA
:10327000209136013091370189819A81820F931F05
:103280000E9412180E949317789481E0D2CF9093F5
:103290004101809340010895909327028093260274
:1032A00008950E94A210811103C080912502089503
:1032B000E0912602F0912702309729F00190F081E9
:1032C000E02D0995089580E00895E0912602F0919F
:1032D0002702309721F00280F381E02D09950895AF
:1032E0009C012E5F3F4FAC01485F5F4F80E0241789
:1032F000350709F40895F90191919F019923B9F3D4
:103300008F5FF5CF662349F0FC0132960896219134
:10331000261729F0E817F907D1F780E0089581E032
:1033200008959C01FC0132969FEF80E04191461781
:1033300051F09F3F19F4411101C0982F8F5F8630E3
:10334000A9F79F3F09F40895290F311D97FD3A957C
:10335000F90162830895FC013296089621912613A3
:1033600003C0DF0111971C92E817F907B9F7089518
:103370000E94911908950E94AB190895029626E0C3
:10338000FC0111922A95E9F7089508950E94C51944
:103390000895811106C081E0809328020E94C61919
:1033A000089582E0F9CF83E0809328020E94C61935
:1033B00008950E94C919089581E0809328020E940F
:1033C000C61908950E94DC190895089508950E9471
:1033D000E6190895089508950E94E5190895CF9378
:1033E0000E94EA190E9426100E94EB19C0E08C2F5F
:1033F0000E94FF0E811105C0CF5FCA30C1F7CF9187
:10340000089581E0FCCF85B7806885BF85B7806867
:1034100085BF08951F921FB61F9211248F939F930B
:10342000AF93BF9380912902811113C080915804FA
:1034300090915904A0915A04B0915B044196A11D4A
:10344000B11D8093580490935904A0935A04B093EB
:103450005B04BF91AF919F918F911F901FBE1F90F2
:10346000189580916004843031F10E9479021092A5
:10347000290288E190E020E40FB6F894A8958093A3
:1034800060000FBE2093600083B7817F846083BF9C
:1034900083B7816083BF7894889583B78E7F83BF1D
:1034A0000FB6F894A89580916000886180936000C1
:1034B000109260000FBE08950E9488050E9480024D
:1034C000089582E084BD93E095BD9AEF97BD809307
:1034D0006E0008952FB7F894809158049091590484
:1034E000A0915A04B0915B042FBF08952FB7F894B0
:1034F000609158047091590480915A0490915B0432
:103500002FBF08959C014FB7F89480915804909173
:103510005904A0915A04B0915B044FBF821B930BD6
:103520000895CF92DF92EF92FF922FB7F894C09058
:103530005804D0905904E0905A04F0905B042FBFD7
:10354000A7019601261B370B480B590BCA01B9017D
:10355000FF90EF90DF90CF90089578941F921FB660
:103560001F9211248F939F93AF93BF938091580420
:1035700090915904A0915A04B0915B040196A11D49
:10358000B11D8093580490935904A0935A04B093AA
:103590005B04BF91AF919F918F911F901FBE1F90B1
:1035A000189587E797E7909301088093000888E1D2
:1035B0009AE00FB6F894A895809360000FBE9093A0
:1035C0006000FFCF88E19AE00FB6F894A895809349
:1035D00060000FBE90936000FFCF8091320208958B
:1035E000089508959B01BA01909160049430E9F424
:1035F0008F708093E9009FEF8091E800915085FDE6
:1036000006C085ED8A95F1F700009111F5CF809104
:10361000E80085FF0AC050E040E0C9010E94C71CD5
:103620008091E8008E778093E8000895CF93DF9330
:10363000EC0148E050E0BC0181E00E94F21A88E011
:10364000FE01AAE2B2E001900D928A95E1F7DF91C6
:10365000CF91089580915F04811109C00E94571E87
:103660000E94B41E8091E20084608093E20008957D
:1036700010925F0408950E94DC19089560915C0423
:1036800081E0611101C080E00E94D31908959091FA
:10369000600481E0943009F080E060915C040E9455
:1036A000D919089542E061EC81E00E94D31D909108
:1036B000600481E0943009F080E060915C040E9435
:1036C000C919089580916204833009F461C030F40F
:1036D0008130D1F1823009F49EC008958A3009F416
:1036E0008AC08B3009F46FC0893009F050C08091D6
:1036F0006104813209F04BC08091650490916604A9
:10370000892B09F044C08091E800877F8093E8000E
:103710008091E80082FF37C09091F3008091F20021
:10372000029731F48091F100813011F0863021F45C
:103730008091F100809332028091E8008B77809332
:10374000E8000E94071E23C080916104813AF9F4C9
:103750008091E800877F8093E800809165049091D4
:103760006604892B61F468E08AE292E070E00E94CE
:10377000161D8091E8008B778093E800089560E043
:1037800090E080E0F3CF809160048111C1CF089573
:1037900080916104813AD9F7809165049091660423
:1037A000892BA9F78091E800877F8093E8008091BA
:1037B000E80080FFFCCF80912A018093F100809186
:1037C000E8008E77BCCF80916104813201F780914F
:1037D000650490916604892BD1F68091E800877F7B
:1037E0008093E8000E94071E8091630480932A0161
:1037F0000E948805089580916104813241F680918C
:10380000E800877F8093E8000E94071E809164048F
:1038100080933302089580916104813A09F0B7CF13
:103820008091E800877F8093E8008091E80080FF26
:10383000FCCF80913302C1CF84B7877F84BF0FB69E
:10384000F894A89580916000886180936000109240
:1038500060000FBE80E890E00FB6F894809361009E
:10386000909361000FBE0E94E21908950E94571EB6
:103870000E94B41EE2EEF0E0808184608083789440
:103880000E943321089582E291E00E944C1908952C
:1038900080916004853031F480916004853019F0A6
:1038A0000E945C1A08950E94311A80915E04882358
:1038B00099F30E94EF19882379F30E94B11C0E94AA
:1038C0008805EACF08959A014091670450916804F1
:1038D0000E946B1C0895492F552743305105C9F0AC
:1038E00058F44130510599F142305105A9F190E069
:1038F00080E050E040E01DC04132510509F1423204
:103900005105A9F780E490E044E952E0672B79F78C
:1039100010C099278130910581F0009729F0029716
:1039200031F7EAE3F2E002C0ECE5F2E0849190E0E6
:10393000AF01F901518340830895EAE4F2E0F6CF44
:1039400089E090E042E752E0672B89F6F2CF82E10E
:1039500090E042E852E0EDCF82E290E040E652E0B3
:10396000E8CF80E189BD82E189BD09B400FEFDCFC9
:103970008091D8008F7D8093D8008091E000826094
:103980008093E0008091E00081FDFCCF0895AF922C
:10399000BF92CF92DF92FF920F931F93CF93DF934B
:1039A0006C01EB018A010E94261EF82E811123C0B2
:1039B0000115110539F0F80180819181C81BD90BDF
:1039C000C80ED91EB12CA12C2097A9F08091E80037
:1039D00085FD22C08091E8008E778093E800011574
:1039E0001105A1F0F80180819181A80EB91EB18264
:1039F000A08285E0F82E8F2DDF91CF911F910F913E
:103A0000FF90DF90CF90BF90AF9008950E94261E48
:103A10008823D1F2F82EEFCFF60181916F018093C8
:103A2000F1002197FFEFAF1ABF0ACECFFC018091C2
:103A300067049091680486179707A0F061157105D7
:103A400029F49091E8009E779093E80090E061154A
:103A5000710551F4911108C08091E80082FF34C0D3
:103A600080E00895BC01F2CF809160048823C1F109
:103A70008530C1F18091E80083FD30C08091E8007D
:103A800082FDEACF8091E80080FFE1CF8091F300D2
:103A90002091F200382F6115710519F02830310599
:103AA00058F091E02830310509F090E02091E800CD
:103AB0002E772093E800CBCF81918093F100615065
:103AC00071092F5F3F4FE7CF80916004882341F059
:103AD000853041F08091E80083FFBECF81E00895FA
:103AE00082E0089583E00895FC018091670490913D
:103AF000680486179707A0F06115710529F4809175
:103B0000E8008E778093E80090E06115710551F42C
:103B1000911108C08091E80082FF35C080E00895CF
:103B2000BC01F2CF809160048823C9F18530C9F1CE
:103B30008091E80083FD31C08091E80082FDEACFEA
:103B40008091E80080FFE1CF8091F3002091F200A6
:103B5000382F6115710519F02830310558F091E0C2
:103B60002830310509F090E08091E8008E7780934D
:103B7000E800CBCF84918093F100319661507109B8
:103B80002F5F3F4FE6CF80916004882341F085305E
:103B900041F08091E80083FFBDCF81E0089582E08D
:103BA000089583E00895982F973028F08F708093C0
:103BB000E90081E008959093E900242F762F50E0EA
:103BC000981731F07091EC002091ED005091F000C9
:103BD00021FD02C09F5FE8CF3091EB003E7F309324
:103BE000EB003091ED003D7F3093ED003091EB0024
:103BF00031603093EB007093EC002093ED00509314
:103C0000F0002091EE0027FDE5CF80E0089580913F
:103C1000610487FF13C08091E80082FF06C0809195
:103C2000E8008B778093E80004C0809160048111E4
:103C3000F2CF0895809160048823D9F38091E80041
:103C400080FFF8CF8091E8008E77ECCF2091E400E0
:103C50003091E50095E6A9012091EC00822F81705A
:103C600020FF06C08091E80080FF06C080E0089534
:103C70002091E80022FD1AC080916004882389F019
:103C8000853089F08091EB0085FD0FC02091E40024
:103C90003091E50042175307F9F29150E1F684E0C4
:103CA000089582E0089583E0089581E008950E94D8
:103CB000C61E0E94CE1EE0EEF0E08081816080830F
:103CC000E8EDF0E080818F77808319BCA7EDB0E04C
:103CD0008C918E7F8C9380818F7E808310925F0485
:103CE00008950F931F93CF93DF930E94C61E0E94E7
:103CF000CE1EC8EDD0E088818F7788838881806868
:103D0000888388818F7D888319BC1092600410920B
:103D10005C0410925E0410925D0400EE10E0F80165
:103D200080818B7F808388818160888342E060E02E
:103D300080E00E94D31DE1EEF0E080818E7F8083E1
:103D4000E2EEF0E080818160808380818860808302
:103D5000F80180818E7F8083888180618883DF91F4
:103D6000CF911F910F910895E8EDF0E080818F7E53
:103D70008083E7EDF0E080818160808384E082BF12
:103D800081E080935F040E94711E0895E8EDF0E0E9
:103D900080818E7F80831092E20008951092DA0075
:103DA0001092E10008951F920F920FB60F92112406
:103DB0002F933F934F935F936F937F938F939F9333
:103DC000AF93BF93EF93FF938091E10082FF0BC00D
:103DD0008091E20082FF07C08091E1008B7F809399
:103DE000E1000E9432218091DA0080FF19C08091A9
:103DF000D80080FF15C08091DA008E7F8093DA00B2
:103E00008091D90080FF96C080E189BD82E189BDA3
:103E100009B400FEFDCF81E0809360040E942A1B5C
:103E20008091E10080FF19C08091E20080FF15C001
:103E30008091E2008E7F8093E2008091E2008061B9
:103E40008093E2008091D80080628093D80019BCF2
:103E500085E0809360040E943E1B8091E10084FF16
:103E60002BC08091E20084FF27C080E189BD82E100
:103E700089BD89B5982F917080FFFBCF8091D800C4
:103E80008F7D8093D8008091E1008F7E8093E10048
:103E90008091E2008F7E8093E2008091E200816059
:103EA0008093E20080915C04882309F449C084E097
:103EB000809360040E94471B8091E10083FF29C02A
:103EC0008091E20083FF25C08091E100877F80938D
:103ED000E10082E08093600410925C048091E10034
:103EE0008E7F8093E1008091E2008E7F8093E200DC
:103EF0008091E20080618093E20042E060E080E037
:103F00000E94D31D8091F00088608093F0000E9491
:103F10003B1BFF91EF91BF91AF919F918F917F914B
:103F20006F915F914F913F912F910F900FBE0F9026
:103F30001F90189519BC109260040E94381B70CF16
:103F40008091E30087FD93E090936004B3CF1F92CC
:103F50000F920FB60F9211242F933F934F935F93BD
:103F60006F937F938F939F93AF93BF93CF93DF9381
:103F7000EF93FF93D091E900DF708091EC00C82FA0
:103F8000C17080FDC0E81092E9008091F000877F49
:103F90008093F00078940E94EB1F1092E9008091CA
:103FA000F00088608093F000CD2BCF70C093E900C3
:103FB000FF91EF91DF91CF91BF91AF919F918F9141
:103FC0007F916F915F914F913F912F910F900FBE15
:103FD0000F901F901895AAE2B0E0E1EFFFE10C947A
:103FE000892181E694E02091F100FC012193CF0129
:103FF000F4E089369F07B9F70E94621B8091E800C0
:1040000083FF1EC180916104909162049A3008F090
:1040100017C1E92FF0E0E05BFD4D0C94742180386E
:1040200099F0823809F00CC1809165048F70873057
:1040300008F006C18093E9008091EB0085FB88279A
:1040400080F91092E90006C080915D0490915E04B1
:10405000911182609091E800977F9093E80080939F
:10406000F1001092F1008091E8008E77E5C088237E
:1040700009F4D3C0823009F0E3C080916304811158
:10408000D6C0809165048F702FEF280F263008F07E
:10409000D7C08093E9002091EB0020FFC8C0933087
:1040A00031F48091EB0080628093EB00C0C090916E
:1040B000EB0090619093EB0021E030E001C0220F13
:1040C0008A95EAF72093EA001092EA008091EB00CB
:1040D0008860EACF8111B4C0109163041F7780918A
:1040E000E3008078812B8093E3008091E800877F54
:1040F0008093E8000E94071E8091E80080FFFCCFBB
:104100008091E30080688093E30082E0111183E0F6
:104110008093600495C08058823008F091C08091EF
:104120006304909164048C3D23E09207A1F583E041
:104130008A838AE289834FB7F894DE01139620E0E0
:104140003EE051E2E32FF0E050935700E49120FF6E
:1041500003C0E295EF703F5FEF708E2F90E0EA3082
:10416000C0F0C7968D939D932F5F243159F74FBFB1
:104170008091E800877F8093E8006AE270E0CE01DA
:1041800001960E94161D8091E8008B778093E800CD
:1041900057C0C096E7CF6091650470916604AE0188
:1041A0004F5F5F4F0E94631CBC01892B09F448C01C
:1041B0009091E800977F9093E80089819A810E940E
:1041C000741DE1CF8038E1F58091E800877F80930E
:1041D000E80080915C048093F10045CF811130C0EC
:1041E00090916304923060F58091E800877F80931E
:1041F000E80090935C040E94071E80915C04882371
:1042000011F084E005C08091E30087FDFACF81E0E2
:10421000809360040E94521B13C08091630481301C
:1042200079F481E0933009F080E080935E0410928D
:10423000E9008091E800877F8093E8000E94071ED4
:104240008091E80083FF0AC08091E800877F809317
:10425000E8008091EB0080628093EB00AA96E3E097
:104260000C94A5210895CF93809160048823A1F038
:10427000C091E900CF709091EC00892F817090FD82
:1042800080E8C82B1092E9008091E80083FD0E942D
:10429000EB1FCF70C093E900CF9108950E94571E85
:1042A000109260040895E8EDF0E0808180618083E1
:1042B0008AE18A95F1F700C08091D9008170089554
:1042C000AA1BBB1B51E107C0AA1FBB1FA617B7073C
:1042D00010F0A61BB70B881F991F5A95A9F7809558
:1042E0009095BC01CD010895EE0FFF1F0590F4914C
:1042F000E02D09942F923F924F925F926F927F929E
:104300008F929F92AF92BF92CF92DF92EF92FF92E5
:104310000F931F93CF93DF93CDB7DEB7CA1BDB0B91
:104320000FB6F894DEBF0FBECDBF09942A88398836
:1043300048885F846E847D848C849B84AA84B9843D
:10434000C884DF80EE80FD800C811B81AA81B98149
:10435000CE0FD11D0FB6F894DEBF0FBECDBFED015D
:104360000895FB01DC0104C08D910190801921F4B6
:1043700041505040C8F7881B990B0895FB01DC01A0
:1043800002C001900D9241505040D8F70895F9991C
:10439000FECF92BD81BDF89A992780B50895A8E116
:1043A000B0E042E050E00C940B22DC01A40FB51FFA
:1043B0004150504048F0CB01840F951F2E910E9430
:1043C000E62141505040D0F70895262FF999FECFAD
:1043D00092BD81BDF89A019700B4021639F01FBA58
:1043E00020BD0FB6F894FA9AF99A0FBE0895039675
:1043F000272F0E94E6210E94E521252F0E94E62119
:10440000242F0C94E6210196272F0E94E6210C947C
:10441000E521DC01CB01FC01F999FECF06C0F2BD1C
:10442000E1BDF89A319600B40D9241505040B8F772
:104430000895F894FFCFAE03AE03FE03FE03DD0341
:10444000DD03DD03DD036304D404E304E304491561
:10445000BD1551151B151F15551523155915651536
:104460002F15B6153315691537156D1595153B15AF
:1044700071159C15411577157F1527155D152B15A1
:10448000611545157B158B15A515B41515154D151D
:10449000C41578167E166716721684168A1690163C
:1044A0000F2037202021372020216A208B20202137
:0444B000E220EE20F8
:1044B400B801010000000100000000000000050137
:1044C40000000004060000000000000021007F221C
:1044D4000003ED1A161BF11AF01A01F6F731333204
:1044E400366697C63435DF01000810181810080026
:00000001FF
